{
    "contractName": "Race",
    "abi": [
        {
            "inputs": [
                {
                    "internalType": "string",
                    "name": "name",
                    "type": "string"
                },
                {
                    "internalType": "string",
                    "name": "symbol",
                    "type": "string"
                }
            ],
            "stateMutability": "nonpayable",
            "type": "constructor"
        },
        {
            "anonymous": false,
            "inputs": [
                {
                    "indexed": true,
                    "internalType": "address",
                    "name": "owner",
                    "type": "address"
                },
                {
                    "indexed": true,
                    "internalType": "address",
                    "name": "approved",
                    "type": "address"
                },
                {
                    "indexed": true,
                    "internalType": "uint256",
                    "name": "tokenId",
                    "type": "uint256"
                }
            ],
            "name": "Approval",
            "type": "event"
        },
        {
            "anonymous": false,
            "inputs": [
                {
                    "indexed": true,
                    "internalType": "address",
                    "name": "owner",
                    "type": "address"
                },
                {
                    "indexed": true,
                    "internalType": "address",
                    "name": "operator",
                    "type": "address"
                },
                {
                    "indexed": false,
                    "internalType": "bool",
                    "name": "approved",
                    "type": "bool"
                }
            ],
            "name": "ApprovalForAll",
            "type": "event"
        },
        {
            "anonymous": false,
            "inputs": [
                {
                    "indexed": true,
                    "internalType": "address",
                    "name": "from",
                    "type": "address"
                },
                {
                    "indexed": true,
                    "internalType": "address",
                    "name": "to",
                    "type": "address"
                },
                {
                    "indexed": true,
                    "internalType": "uint256",
                    "name": "tokenId",
                    "type": "uint256"
                }
            ],
            "name": "Transfer",
            "type": "event"
        },
        {
            "inputs": [
                {
                    "internalType": "string",
                    "name": "_uname",
                    "type": "string"
                },
                {
                    "internalType": "uint16",
                    "name": "_btc",
                    "type": "uint16"
                },
                {
                    "internalType": "uint16",
                    "name": "_eth",
                    "type": "uint16"
                },
                {
                    "internalType": "uint16",
                    "name": "_usdt",
                    "type": "uint16"
                },
                {
                    "internalType": "uint16",
                    "name": "_bnb",
                    "type": "uint16"
                },
                {
                    "internalType": "uint16",
                    "name": "_ada",
                    "type": "uint16"
                },
                {
                    "internalType": "uint16",
                    "name": "_sol",
                    "type": "uint16"
                },
                {
                    "internalType": "uint16",
                    "name": "_xrp",
                    "type": "uint16"
                },
                {
                    "internalType": "uint16",
                    "name": "_luna",
                    "type": "uint16"
                },
                {
                    "internalType": "uint16",
                    "name": "_doge",
                    "type": "uint16"
                },
                {
                    "internalType": "uint16",
                    "name": "_dot",
                    "type": "uint16"
                }
            ],
            "name": "addRacers",
            "outputs": [],
            "stateMutability": "payable",
            "type": "function"
        },
        {
            "inputs": [
                {
                    "internalType": "address",
                    "name": "to",
                    "type": "address"
                },
                {
                    "internalType": "uint256",
                    "name": "tokenId",
                    "type": "uint256"
                }
            ],
            "name": "approve",
            "outputs": [],
            "stateMutability": "nonpayable",
            "type": "function"
        },
        {
            "inputs": [
                {
                    "internalType": "address",
                    "name": "owner",
                    "type": "address"
                }
            ],
            "name": "balanceOf",
            "outputs": [
                {
                    "internalType": "uint256",
                    "name": "",
                    "type": "uint256"
                }
            ],
            "stateMutability": "view",
            "type": "function"
        },
        {
            "inputs": [
                {
                    "internalType": "uint256",
                    "name": "tokenId",
                    "type": "uint256"
                }
            ],
            "name": "getApproved",
            "outputs": [
                {
                    "internalType": "address",
                    "name": "",
                    "type": "address"
                }
            ],
            "stateMutability": "view",
            "type": "function"
        },
        {
            "inputs": [
                {
                    "internalType": "address",
                    "name": "owner",
                    "type": "address"
                },
                {
                    "internalType": "address",
                    "name": "operator",
                    "type": "address"
                }
            ],
            "name": "isApprovedForAll",
            "outputs": [
                {
                    "internalType": "bool",
                    "name": "",
                    "type": "bool"
                }
            ],
            "stateMutability": "view",
            "type": "function"
        },
        {
            "inputs": [
                {
                    "internalType": "string",
                    "name": "_tokenURI",
                    "type": "string"
                }
            ],
            "name": "mint",
            "outputs": [],
            "stateMutability": "nonpayable",
            "type": "function"
        },
        {
            "inputs": [],
            "name": "name",
            "outputs": [
                {
                    "internalType": "string",
                    "name": "",
                    "type": "string"
                }
            ],
            "stateMutability": "view",
            "type": "function"
        },
        {
            "inputs": [
                {
                    "internalType": "uint256",
                    "name": "tokenId",
                    "type": "uint256"
                }
            ],
            "name": "ownerOf",
            "outputs": [
                {
                    "internalType": "address",
                    "name": "",
                    "type": "address"
                }
            ],
            "stateMutability": "view",
            "type": "function"
        },
        {
            "inputs": [
                {
                    "internalType": "uint256",
                    "name": "",
                    "type": "uint256"
                }
            ],
            "name": "racers",
            "outputs": [
                {
                    "internalType": "string",
                    "name": "uname",
                    "type": "string"
                },
                {
                    "internalType": "address",
                    "name": "addr",
                    "type": "address"
                },
                {
                    "internalType": "uint16",
                    "name": "btc",
                    "type": "uint16"
                },
                {
                    "internalType": "uint16",
                    "name": "eth",
                    "type": "uint16"
                },
                {
                    "internalType": "uint16",
                    "name": "usdt",
                    "type": "uint16"
                },
                {
                    "internalType": "uint16",
                    "name": "bnb",
                    "type": "uint16"
                },
                {
                    "internalType": "uint16",
                    "name": "ada",
                    "type": "uint16"
                },
                {
                    "internalType": "uint16",
                    "name": "sol",
                    "type": "uint16"
                },
                {
                    "internalType": "uint16",
                    "name": "xrp",
                    "type": "uint16"
                },
                {
                    "internalType": "uint16",
                    "name": "luna",
                    "type": "uint16"
                },
                {
                    "internalType": "uint16",
                    "name": "doge",
                    "type": "uint16"
                },
                {
                    "internalType": "uint16",
                    "name": "dot",
                    "type": "uint16"
                }
            ],
            "stateMutability": "view",
            "type": "function"
        },
        {
            "inputs": [
                {
                    "internalType": "address",
                    "name": "from",
                    "type": "address"
                },
                {
                    "internalType": "address",
                    "name": "to",
                    "type": "address"
                },
                {
                    "internalType": "uint256",
                    "name": "tokenId",
                    "type": "uint256"
                }
            ],
            "name": "safeTransferFrom",
            "outputs": [],
            "stateMutability": "nonpayable",
            "type": "function"
        },
        {
            "inputs": [
                {
                    "internalType": "address",
                    "name": "from",
                    "type": "address"
                },
                {
                    "internalType": "address",
                    "name": "to",
                    "type": "address"
                },
                {
                    "internalType": "uint256",
                    "name": "tokenId",
                    "type": "uint256"
                },
                {
                    "internalType": "bytes",
                    "name": "_data",
                    "type": "bytes"
                }
            ],
            "name": "safeTransferFrom",
            "outputs": [],
            "stateMutability": "nonpayable",
            "type": "function"
        },
        {
            "inputs": [
                {
                    "internalType": "address",
                    "name": "operator",
                    "type": "address"
                },
                {
                    "internalType": "bool",
                    "name": "approved",
                    "type": "bool"
                }
            ],
            "name": "setApprovalForAll",
            "outputs": [],
            "stateMutability": "nonpayable",
            "type": "function"
        },
        {
            "inputs": [
                {
                    "internalType": "bytes4",
                    "name": "interfaceId",
                    "type": "bytes4"
                }
            ],
            "name": "supportsInterface",
            "outputs": [
                {
                    "internalType": "bool",
                    "name": "",
                    "type": "bool"
                }
            ],
            "stateMutability": "view",
            "type": "function"
        },
        {
            "inputs": [],
            "name": "symbol",
            "outputs": [
                {
                    "internalType": "string",
                    "name": "",
                    "type": "string"
                }
            ],
            "stateMutability": "view",
            "type": "function"
        },
        {
            "inputs": [],
            "name": "tokenCounter",
            "outputs": [
                {
                    "internalType": "uint256",
                    "name": "",
                    "type": "uint256"
                }
            ],
            "stateMutability": "view",
            "type": "function"
        },
        {
            "inputs": [
                {
                    "internalType": "uint256",
                    "name": "_tokenId",
                    "type": "uint256"
                }
            ],
            "name": "tokenURI",
            "outputs": [
                {
                    "internalType": "string",
                    "name": "",
                    "type": "string"
                }
            ],
            "stateMutability": "view",
            "type": "function"
        },
        {
            "inputs": [
                {
                    "internalType": "address",
                    "name": "from",
                    "type": "address"
                },
                {
                    "internalType": "address",
                    "name": "to",
                    "type": "address"
                },
                {
                    "internalType": "uint256",
                    "name": "tokenId",
                    "type": "uint256"
                }
            ],
            "name": "transferFrom",
            "outputs": [],
            "stateMutability": "nonpayable",
            "type": "function"
        }
    ],
    "bytecode": "60806040523480156200001157600080fd5b5060405162001e8338038062001e8383398101604081905262000034916200033e565b81818181816000908051906020019062000050929190620001cb565b50805162000066906001906020840190620001cb565b505060006006819055600b80546001600160a01b031990811673f4030086522a5beea4988f8ca5b36dbc97bee88c17909155600c80548216735f4ec3df9cbd43714fe2740f5e3616155c5b8419179055600d80548216733e7d1eab13ad0104d2750b8863b489d65364e32d179055600e80548216738993ed705cdf5e84d0a3b754b5ee0e1783fcdf16179055600f8054821673ae48c91df1fe419994ffda27da09d5ac69c30f55179055601080548216734ffc43a60e009b551865a93d232e33fce9f0150717905560118054821673ced2660c6dd1ffd856a5a82c67f3482d88c50b121790556012805482167391e9331556ed76c9393055719986409e11b56f73179055601380548216732465cefd3b488be410b941b1d4b2767088e2a02817905560148054909116731c07afb8e2b827c5a4739c6d59ae3a5035f28734179055600a600881905560099190915567016345785d8a0000905550620003e59350505050565b828054620001d990620003a8565b90600052602060002090601f016020900481019282620001fd576000855562000248565b82601f106200021857805160ff191683800117855562000248565b8280016001018555821562000248579182015b82811115620002485782518255916020019190600101906200022b565b50620002569291506200025a565b5090565b5b808211156200025657600081556001016200025b565b634e487b7160e01b600052604160045260246000fd5b600082601f8301126200029957600080fd5b81516001600160401b0380821115620002b657620002b662000271565b604051601f8301601f19908116603f01168101908282118183101715620002e157620002e162000271565b81604052838152602092508683858801011115620002fe57600080fd5b600091505b8382101562000322578582018301518183018401529082019062000303565b83821115620003345760008385830101525b9695505050505050565b600080604083850312156200035257600080fd5b82516001600160401b03808211156200036a57600080fd5b620003788683870162000287565b935060208501519150808211156200038f57600080fd5b506200039e8582860162000287565b9150509250929050565b600181811c90821680620003bd57607f821691505b60208210811415620003df57634e487b7160e01b600052602260045260246000fd5b50919050565b611a8e80620003f56000396000f3fe6080604052600436106100fe5760003560e01c80636352211e11610095578063b88d4fde11610064578063b88d4fde146102c2578063c87b56dd146102e2578063d082e38114610302578063d85d3d2714610318578063e985e9c51461033857600080fd5b80636352211e1461023f57806370a082311461025f57806395d89b411461028d578063a22cb465146102a257600080fd5b806323b872dd116100d157806323b872dd146101b4578063328b4d4b146101d457806342842e0e1461020c578063497649dc1461022c57600080fd5b806301ffc9a71461010357806306fdde0314610138578063081812fc1461015a578063095ea7b314610192575b600080fd5b34801561010f57600080fd5b5061012361011e3660046113f4565b610381565b60405190151581526020015b60405180910390f35b34801561014457600080fd5b5061014d6103d3565b60405161012f9190611465565b34801561016657600080fd5b5061017a610175366004611478565b610465565b6040516001600160a01b03909116815260200161012f565b34801561019e57600080fd5b506101b26101ad3660046114ad565b6104ff565b005b3480156101c057600080fd5b506101b26101cf3660046114d7565b610615565b3480156101e057600080fd5b506101f46101ef366004611478565b610646565b60405161012f9c9b9a99989796959493929190611513565b34801561021857600080fd5b506101b26102273660046114d7565b610775565b6101b261023a366004611652565b610790565b34801561024b57600080fd5b5061017a61025a366004611478565b610a02565b34801561026b57600080fd5b5061027f61027a366004611739565b610a79565b60405190815260200161012f565b34801561029957600080fd5b5061014d610b00565b3480156102ae57600080fd5b506101b26102bd366004611754565b610b0f565b3480156102ce57600080fd5b506101b26102dd366004611790565b610b1e565b3480156102ee57600080fd5b5061014d6102fd366004611478565b610b56565b34801561030e57600080fd5b5061027f60065481565b34801561032457600080fd5b506101b261033336600461180c565b610c2b565b34801561034457600080fd5b50610123610353366004611841565b6001600160a01b03918216600090815260056020908152604080832093909416825291909152205460ff1690565b60006001600160e01b031982166380ac58cd60e01b14806103b257506001600160e01b03198216635b5e139f60e01b145b806103cd57506301ffc9a760e01b6001600160e01b03198316145b92915050565b6060600080546103e290611874565b80601f016020809104026020016040519081016040528092919081815260200182805461040e90611874565b801561045b5780601f106104305761010080835404028352916020019161045b565b820191906000526020600020905b81548152906001019060200180831161043e57829003601f168201915b5050505050905090565b6000818152600260205260408120546001600160a01b03166104e35760405162461bcd60e51b815260206004820152602c60248201527f4552433732313a20617070726f76656420717565727920666f72206e6f6e657860448201526b34b9ba32b73a103a37b5b2b760a11b60648201526084015b60405180910390fd5b506000908152600460205260409020546001600160a01b031690565b600061050a82610a02565b9050806001600160a01b0316836001600160a01b031614156105785760405162461bcd60e51b815260206004820152602160248201527f4552433732313a20617070726f76616c20746f2063757272656e74206f776e656044820152603960f91b60648201526084016104da565b336001600160a01b038216148061059457506105948133610353565b6106065760405162461bcd60e51b815260206004820152603860248201527f4552433732313a20617070726f76652063616c6c6572206973206e6f74206f7760448201527f6e6572206e6f7220617070726f76656420666f7220616c6c000000000000000060648201526084016104da565b6106108383610c5b565b505050565b61061f3382610cc9565b61063b5760405162461bcd60e51b81526004016104da906118af565b610610838383610dc0565b6015818154811061065657600080fd5b906000526020600020906003020160009150905080600001805461067990611874565b80601f01602080910402602001604051908101604052809291908181526020018280546106a590611874565b80156106f25780601f106106c7576101008083540402835291602001916106f2565b820191906000526020600020905b8154815290600101906020018083116106d557829003601f168201915b505050600184015460029094015492936001600160a01b0381169361ffff600160a01b830481169450600160b01b830481169350600160c01b8304811692600160d01b8104821692600160e01b8204831692600160f01b90920482169181811691620100008104821691640100000000820481169166010000000000009004168c565b61061083838360405180602001604052806000815250610b1e565b600a543410156107f85760405162461bcd60e51b815260206004820152602d60248201527f496e73756666696369656e74207374616b696e6720616d6f756e7420746f207360448201526c7461727420746865207261636560981b60648201526084016104da565b60408051610180810182528c81523360208083019190915261ffff808e16938301939093528b831660608301528a8316608083015289831660a083015288831660c083015287831660e08301528683166101008301528583166101208301528483166101408301529183166101608201526015805460018101825560009190915281518051929360039092027f55f448fdea98c4d29eb340757ef0a66cd03dbb9538908a6a81d96026b71ec47501926108b49284920190611342565b50602082015160018201805460408501516060860151608087015160a088015160c089015160e08a01516001600160a01b039098166001600160b01b031990961695909517600160a01b61ffff958616021763ffffffff60b01b1916600160b01b9385169390930261ffff60c01b191692909217600160c01b918416919091021763ffffffff60d01b1916600160d01b9183169190910261ffff60e01b191617600160e01b92821692909202919091176001600160f01b0316600160f01b93821693909302929092179055610100830151600290920180546101208501516101408601516101609096015194841663ffffffff199092169190911762010000918416919091021767ffffffff0000000019166401000000009483169490940267ffff000000000000191693909317660100000000000092909116919091021790555050505050505050505050565b6000818152600260205260408120546001600160a01b0316806103cd5760405162461bcd60e51b815260206004820152602960248201527f4552433732313a206f776e657220717565727920666f72206e6f6e657869737460448201526832b73a103a37b5b2b760b91b60648201526084016104da565b60006001600160a01b038216610ae45760405162461bcd60e51b815260206004820152602a60248201527f4552433732313a2062616c616e636520717565727920666f7220746865207a65604482015269726f206164647265737360b01b60648201526084016104da565b506001600160a01b031660009081526003602052604090205490565b6060600180546103e290611874565b610b1a338383610f60565b5050565b610b283383610cc9565b610b445760405162461bcd60e51b81526004016104da906118af565b610b508484848461102f565b50505050565b6000818152600260205260409020546060906001600160a01b0316610b8d5760405162461bcd60e51b81526004016104da90611900565b60008281526007602052604090208054610ba690611874565b80601f0160208091040260200160405190810160405280929190818152602001828054610bd290611874565b8015610c1f5780601f10610bf457610100808354040283529160200191610c1f565b820191906000526020600020905b815481529060010190602001808311610c0257829003601f168201915b50505050509050919050565b610c3733600654611062565b610c436006548261107c565b60068054906000610c5383611962565b919050555050565b600081815260046020526040902080546001600160a01b0319166001600160a01b0384169081179091558190610c9082610a02565b6001600160a01b03167f8c5be1e5ebec7d5bd14f71427d1e84f3dd0314c0f7b2291e5b200ac8c7c3b92560405160405180910390a45050565b6000818152600260205260408120546001600160a01b0316610d425760405162461bcd60e51b815260206004820152602c60248201527f4552433732313a206f70657261746f7220717565727920666f72206e6f6e657860448201526b34b9ba32b73a103a37b5b2b760a11b60648201526084016104da565b6000610d4d83610a02565b9050806001600160a01b0316846001600160a01b03161480610d885750836001600160a01b0316610d7d84610465565b6001600160a01b0316145b80610db857506001600160a01b0380821660009081526005602090815260408083209388168352929052205460ff165b949350505050565b826001600160a01b0316610dd382610a02565b6001600160a01b031614610e3b5760405162461bcd60e51b815260206004820152602960248201527f4552433732313a207472616e73666572206f6620746f6b656e2074686174206960448201526839903737ba1037bbb760b91b60648201526084016104da565b6001600160a01b038216610e9d5760405162461bcd60e51b8152602060048201526024808201527f4552433732313a207472616e7366657220746f20746865207a65726f206164646044820152637265737360e01b60648201526084016104da565b610ea8600082610c5b565b6001600160a01b0383166000908152600360205260408120805460019290610ed190849061197d565b90915550506001600160a01b0382166000908152600360205260408120805460019290610eff908490611994565b909155505060008181526002602052604080822080546001600160a01b0319166001600160a01b0386811691821790925591518493918716917fddf252ad1be2c89b69c2b068fc378daa952ba7f163c4a11628f55a4df523b3ef91a4505050565b816001600160a01b0316836001600160a01b03161415610fc25760405162461bcd60e51b815260206004820152601960248201527f4552433732313a20617070726f766520746f2063616c6c65720000000000000060448201526064016104da565b6001600160a01b03838116600081815260056020908152604080832094871680845294825291829020805460ff191686151590811790915591519182527f17307eab39ab6107e8899845ad3d59bd9653f200f220920489ca2b5937696c31910160405180910390a3505050565b61103a848484610dc0565b611046848484846110cf565b610b505760405162461bcd60e51b81526004016104da906119ac565b610b1a8282604051806020016040528060008152506111cd565b6000828152600260205260409020546001600160a01b03166110b05760405162461bcd60e51b81526004016104da90611900565b6000828152600760209081526040909120825161061092840190611342565b60006001600160a01b0384163b156111c257604051630a85bd0160e11b81526001600160a01b0385169063150b7a02906111139033908990889088906004016119fe565b6020604051808303816000875af192505050801561114e575060408051601f3d908101601f1916820190925261114b91810190611a3b565b60015b6111a8573d80801561117c576040519150601f19603f3d011682016040523d82523d6000602084013e611181565b606091505b5080516111a05760405162461bcd60e51b81526004016104da906119ac565b805181602001fd5b6001600160e01b031916630a85bd0160e11b149050610db8565b506001949350505050565b6111d78383611200565b6111e460008484846110cf565b6106105760405162461bcd60e51b81526004016104da906119ac565b6001600160a01b0382166112565760405162461bcd60e51b815260206004820181905260248201527f4552433732313a206d696e7420746f20746865207a65726f206164647265737360448201526064016104da565b6000818152600260205260409020546001600160a01b0316156112bb5760405162461bcd60e51b815260206004820152601c60248201527f4552433732313a20746f6b656e20616c7265616479206d696e7465640000000060448201526064016104da565b6001600160a01b03821660009081526003602052604081208054600192906112e4908490611994565b909155505060008181526002602052604080822080546001600160a01b0319166001600160a01b03861690811790915590518392907fddf252ad1be2c89b69c2b068fc378daa952ba7f163c4a11628f55a4df523b3ef908290a45050565b82805461134e90611874565b90600052602060002090601f01602090048101928261137057600085556113b6565b82601f1061138957805160ff19168380011785556113b6565b828001600101855582156113b6579182015b828111156113b657825182559160200191906001019061139b565b506113c29291506113c6565b5090565b5b808211156113c257600081556001016113c7565b6001600160e01b0319811681146113f157600080fd5b50565b60006020828403121561140657600080fd5b8135611411816113db565b9392505050565b6000815180845260005b8181101561143e57602081850181015186830182015201611422565b81811115611450576000602083870101525b50601f01601f19169290920160200192915050565b6020815260006114116020830184611418565b60006020828403121561148a57600080fd5b5035919050565b80356001600160a01b03811681146114a857600080fd5b919050565b600080604083850312156114c057600080fd5b6114c983611491565b946020939093013593505050565b6000806000606084860312156114ec57600080fd5b6114f584611491565b925061150360208501611491565b9150604084013590509250925092565b6101808152600061152861018083018f611418565b6001600160a01b039d909d1660208301525061ffff9a8b166040820152988a1660608a0152968916608089015294881660a088015292871660c087015290861660e086015285166101008501528416610120840152831661014083015290911661016090910152919050565b634e487b7160e01b600052604160045260246000fd5b600067ffffffffffffffff808411156115c5576115c5611594565b604051601f8501601f19908116603f011681019082821181831017156115ed576115ed611594565b8160405280935085815286868601111561160657600080fd5b858560208301376000602087830101525050509392505050565b600082601f83011261163157600080fd5b611411838335602085016115aa565b803561ffff811681146114a857600080fd5b60008060008060008060008060008060006101608c8e03121561167457600080fd5b8b3567ffffffffffffffff81111561168b57600080fd5b6116978e828f01611620565b9b50506116a660208d01611640565b99506116b460408d01611640565b98506116c260608d01611640565b97506116d060808d01611640565b96506116de60a08d01611640565b95506116ec60c08d01611640565b94506116fa60e08d01611640565b93506117096101008d01611640565b92506117186101208d01611640565b91506117276101408d01611640565b90509295989b509295989b9093969950565b60006020828403121561174b57600080fd5b61141182611491565b6000806040838503121561176757600080fd5b61177083611491565b91506020830135801515811461178557600080fd5b809150509250929050565b600080600080608085870312156117a657600080fd5b6117af85611491565b93506117bd60208601611491565b925060408501359150606085013567ffffffffffffffff8111156117e057600080fd5b8501601f810187136117f157600080fd5b611800878235602084016115aa565b91505092959194509250565b60006020828403121561181e57600080fd5b813567ffffffffffffffff81111561183557600080fd5b610db884828501611620565b6000806040838503121561185457600080fd5b61185d83611491565b915061186b60208401611491565b90509250929050565b600181811c9082168061188857607f821691505b602082108114156118a957634e487b7160e01b600052602260045260246000fd5b50919050565b60208082526031908201527f4552433732313a207472616e736665722063616c6c6572206973206e6f74206f6040820152701ddb995c881b9bdc88185c1c1c9bdd9959607a1b606082015260800190565b6020808252602c908201527f4552433732314d657461646174613a2055524920736574206f66206e6f6e657860408201526b34b9ba32b73a103a37b5b2b760a11b606082015260800190565b634e487b7160e01b600052601160045260246000fd5b60006000198214156119765761197661194c565b5060010190565b60008282101561198f5761198f61194c565b500390565b600082198211156119a7576119a761194c565b500190565b60208082526032908201527f4552433732313a207472616e7366657220746f206e6f6e20455243373231526560408201527131b2b4bb32b91034b6b83632b6b2b73a32b960711b606082015260800190565b6001600160a01b0385811682528416602082015260408101839052608060608201819052600090611a3190830184611418565b9695505050505050565b600060208284031215611a4d57600080fd5b8151611411816113db56fea2646970667358221220d48e534e60e7e5f9ec7229c5ebbe6b9c8524b56cc923e1a6a3a6792b9661d1fa64736f6c634300080b0033",
    "sourcePath": "/home/suhas/formula-crypto/contracts/Race.sol",
    "compiler": {
        "name": "solc",
        "version": "0.8.11+commit.d7f03943"
    },
    "functionHashes": {
        "addRacers(string,uint16,uint16,uint16,uint16,uint16,uint16,uint16,uint16,uint16,uint16)": "497649dc",
        "approve(address,uint256)": "095ea7b3",
        "balanceOf(address)": "70a08231",
        "getApproved(uint256)": "081812fc",
        "isApprovedForAll(address,address)": "e985e9c5",
        "mint(string)": "d85d3d27",
        "name()": "06fdde03",
        "ownerOf(uint256)": "6352211e",
        "racers(uint256)": "328b4d4b",
        "safeTransferFrom(address,address,uint256)": "42842e0e",
        "safeTransferFrom(address,address,uint256,bytes)": "b88d4fde",
        "setApprovalForAll(address,bool)": "a22cb465",
        "supportsInterface(bytes4)": "01ffc9a7",
        "symbol()": "95d89b41",
        "tokenCounter()": "d082e381",
        "tokenURI(uint256)": "c87b56dd",
        "transferFrom(address,address,uint256)": "23b872dd"
    },
    "gasEstimates": {
        "creation": {
            "codeDepositCost": "1359600",
            "executionCost": "infinite",
            "totalCost": "infinite"
        },
        "external": {
            "addRacers(string,uint16,uint16,uint16,uint16,uint16,uint16,uint16,uint16,uint16,uint16)": "infinite",
            "approve(address,uint256)": "infinite",
            "balanceOf(address)": "2634",
            "getApproved(uint256)": "4760",
            "isApprovedForAll(address,address)": "infinite",
            "mint(string)": "infinite",
            "name()": "infinite",
            "ownerOf(uint256)": "2579",
            "racers(uint256)": "infinite",
            "safeTransferFrom(address,address,uint256)": "infinite",
            "safeTransferFrom(address,address,uint256,bytes)": "infinite",
            "setApprovalForAll(address,bool)": "26775",
            "supportsInterface(bytes4)": "534",
            "symbol()": "infinite",
            "tokenCounter()": "2361",
            "tokenURI(uint256)": "infinite",
            "transferFrom(address,address,uint256)": "infinite"
        },
        "internal": {
            "getDecimals(contract AggregatorV3Interface)": "infinite",
            "getLatestPrice(contract AggregatorV3Interface)": "infinite"
        }
    }
}